:020000040800F2
:100000001804002001010008BB0A0008370A000894
:10001000B90A000849010008C90B000800000000E7
:10002000000000000000000000000000090B0008B4
:100030004B01000800000000070B00080B0B000834
:100040001B0100081B0100081B0100081B01000820
:100050001B0100081B0100081B0100081B01000810
:100060001B0100081B0100081B0100081B01000800
:100070001B0100081B0100081B0100081B010008F0
:100080001B0100081B0100081B0100081B010008E0
:100090001B0100081B0100081B0100081B010008D0
:1000A0001B0100081B0100081B0100081B010008C0
:1000B0001B0100081B0100081B0100081B010008B0
:1000C0001B0100081B0100081B0100081B010008A0
:1000D0001B0100081B0100081B0100081B01000890
:1000E0001B0100081B0100081B010008DFF80CD0F1
:1000F00000F018F800480047E90B00081804002039
:100100000648804706480047FEE7FEE7FEE7FEE7B1
:10011000FEE7FEE7FEE7FEE7FEE7FEE7810B0008ED
:10012000ED000008064C074D06E0E06840F00103D2
:1001300094E8070098471034AC42F6D3FFF7DAFF93
:10014000500C0008700C0008FEE7704770B50446BC
:1001500000F0FAF80546601C02D004480078044418
:1001600000F0F2F8401BA042FAD370BD040000205A
:100170002DE9F84FDFF890A100220AF1040B144694
:1001800001274FF00F090BF1040E00BF0B6807FAAF
:1001900004F52B40AB4274D1DFF870C14E68A6EB7A
:1001A0000C0866452BD00DDC032E34D005DC36B3AD
:1001B000012E19D0022E2FD11BE0112E16D0122E97
:1001C0002AD119E0B8F5881F19D006DCB8F5803FB0
:1001D00015D0B8F5801F1FD111E0B8F5001F0ED063
:1001E000B8F5041F18D10AE0CA6815E0CA68121DE4
:1001F00012E0CA6808320FE0CA680C320CE08A6864
:100200002AB1012A4FF0080203D0456104E004221C
:1002100002E0056100E00022FF2B01D8064601E064
:1002200000F104064FEA840501D9A5F12005D6F8AE
:1002300000C009FA05F82CEA080C02FA05F54CEAA8
:10024000050CC6F800C04D68ED0057D5304DAE69BD
:1002500046F00106AE61AD6924F0030605F0010524
:1002600000952C4D06EB050CDCF80850A6074FEA6C
:10027000167809FA08F6B543274EB04202D1002697
:1002800010E03BE0254EB04201D101260AE0244EA9
:10029000B04201D1022605E0224EB04201D1032630
:1002A00000E0042606FA08F62E43CCF808604D68F4
:1002B000DAF80060ED03554601D51E4300E09E4389
:1002C0002E604D68DBF80060AD035D4601D51E432E
:1002D00000E09E432E604D68DEF80060ED0275463A
:1002E00001D51E4300E09E432E604D68AD020E4DC9
:1002F0002E6801D51E4300E09E432E60641C102C26
:10030000FFF444AFBDE8F88F000401400000111075
:10031000001002400000014000080140000C0140B4
:1003200000100140001401400C04014080680840A6
:1003300000D001207047C2684A40C26070470AB1CD
:10034000016170470904FBE70148806870470000BD
:1003500004000020024881680278114481607047DF
:1003600004000020074810B5016841F01001016049
:10037000032000F091F8002000F006F800F024F8C7
:10038000002010BD0020024070B50D4D04464FF412
:100390007A712878B1FBF0F00A490968B1FBF0F0F6
:1003A00000F02AFB48B9102C07D200222146501E2B
:1003B00000F052F800206C6070BD012070BD00009C
:1003C0000400002010000020214808B5816941F098
:1003D00001018161816901F001010091C16941F070
:1003E0008051C161C06900F080500090032000F08E
:1003F00053F8002211466FF00B0000F02DF8002298
:1004000011466FF00A0000F027F8002211466FF045
:10041000090000F021F800221146501F00F01CF8DE
:1004200000221146101F00F017F800221146901EFE
:1004300000F012F800221146501E00F00DF8054899
:10044000416821F0E06141F00071416008BD0000A9
:100450000010024000000140F0B40E4B1B680C4637
:10046000C3F30223C3F10705042D00D90425191D88
:10047000072901D2002300E0DB1E012606FA05F160
:10048000491E214099409E40761E16403143F0BCE3
:1004900000F014BB0CED00E0064900F0070208680C
:1004A0004FF6FF03184040EA0220034A1043086059
:1004B000704700000CED00E00000FA050E4A10B590
:1004C000136823F002031360136823F0010303434E
:1004D00013600A4C206840F004002060012909D014
:1004E00040BF00F00DFB00F00BFB206820F0040083
:1004F000206010BD30BFF8E70070004010ED00E054
:100500002DE9F047DFF83C8105460E46D8F800009B
:1005100000F00700B0420CD2D8F8001021F007011B
:100520003143C8F80010D8F8000000F00700B042CE
:1005300063D12878444C800705D56068A96820F00D
:10054000F000084360602878C00745D0686801283B
:1005500016D02168022816D0890700294DDA616873
:1005600021F0030101436160FFF7EEFE6968074671
:1005700041F2883001290FD00229814619D027E0A5
:1005800021688903E9E78901E7E700BFFFF7DCFE9F
:10059000C11B494501D918E081466068C0F381005C
:1005A0000128F3D118E000BFFFF7CEFEC11B49457B
:1005B0000BD86068C0F381000228F5D10CE000BFC1
:1005C000FFF7C2FEC11B494502D90320BDE8F087F1
:1005D000606810F00C0FF3D1D8F80010404601F01D
:1005E0000701B1420BD9016821F0070131430160D5
:1005F000006800F00700B04201D00120E6E728784B
:10060000400705D56068E96820F4E0600843606051
:100610002878000706D56068296920F4605040EA10
:10062000C100606000F01CF86168084AC1F3031162
:10063000515CC840064908600020FFF7A5FE002075
:10064000C4E700000020024000100240400C0008F7
:1006500010000020014800687047000010000020D2
:1006600012A185B00FC98DE80F0014A0144A0068CC
:1006700004905168134801F00C03042B10D0082B90
:100680000ED1C1F38343C9031DF803000AD5516895
:1006900004AAC1F34041515C0A4A5043B0FBF1F057
:1006A00005B0704708494843FAE700000203040513
:1006B000060708090A0B0C0D0E0F101001020000AE
:1006C0000010024000127A0000093D002DE9F84FA9
:1006D00004460078B94DC00748D06868C0F381006F
:1006E000012807D06868C0F38100022809D1686832
:1006F000C00306D52868800338D5606800286FD00D
:1007000034E06068B0F5803F0BD010B1B0F5A02F99
:1007100011D0286820F480302860286820F48020D8
:1007200002E0286840F480302860606888B1FFF7F4
:100730000BFE064609E0286840F480202860F0E7B8
:10074000FFF702FE801B642875D828688003F7D560
:100750000CE0FFF7F9FD064605E000BFFFF7F4FDEA
:10076000801B6428F0D828688003F7D42078944E42
:1007700080074FF001094FF000083BD5686810F082
:100780000C0F07D06868C0F38100022809D168689F
:10079000C00306D42868800714D5206901281FD11A
:1007A00010E02069B0B1C6F80090FFF7CDFD074614
:1007B00005E000BFFFF7C8FDC01B0228C4D82868A9
:1007C0008007F7D52868616920F0F80040EAC10089
:1007D00028600FE0C6F80080FFF7B6FD074606E088
:1007E000E9E000BFFFF7B0FDC01B022823D828684E
:1007F0008007F7D4207800072CD57248A169D9B1B9
:10080000C0F80090FFF7A0FD074604E0FFF79CFD4D
:10081000C01B02280FD8686A8007F7D56A484FF4D2
:10082000FA510068B0FBF1F0009000BF0098411E43
:100830000091FAD20EE080E0C0F80080FFF784FD5E
:10084000074604E0FFF780FDC01B022875D8686AE0
:100850008007F7D42078400760D5E8690027C000FA
:1008600008D4E86940F08050E861E869012700F0A9
:100870008050009055480168C90513D4016883462B
:1008800041F480710160FFF75FFD824606E000BF22
:10089000FFF75AFDA0EB0A0064284ED8DBF80000F1
:1008A000C005F5D5E06801280AD008B1052813D0A5
:1008B000286A20F001002862286A20F0040002E083
:1008C000286A40F001002862E06841F2883B98B154
:1008D000FFF73AFD82460BE0286A40F004002862E8
:1008E000EEE700BFFFF730FDA0EB0A0159455AD8EB
:1008F000286A8007F6D50CE0FFF726FD824605E062
:10090000FFF722FDA0EB0A0159454CD8286A800761
:10091000F6D41FB1E86920F08050E861E06988B33F
:100920006968C1F38101022945D00228C6F86080B8
:1009300004D0FFF709FD044638E034E0FFF704FD7A
:10094000074604E0FFF700FDC01B02282BD82868EB
:100950008001F7D4206AB0F5803F05D16868A168AE
:1009600020F4003008436860D4E90801084369684E
:1009700021F4741108436860C6F86090FFF7E4FC46
:10098000044606E015E000BFFFF7DEFC001B02286E
:1009900009D828688001F7D50BE000BFFFF7D4FC29
:1009A000001B022802D90320BDE8F88F28688001C7
:1009B000F4D40020F8E70120F6E700000010024020
:1009C00000004242800442421000002000700040BB
:1009D0004FF0E020016941F00201016170474FF0E2
:1009E000E0210428086903D020F004000861704762
:1009F00040F00400FAE7704710B5401EB0F1807F68
:100A000001D3012010BD4FF0E02460610F21601779
:100A100000F054F80020A06107202061002010BDE4
:100A200010B5FFF7E8FF10BD4FF0E020016921F09D
:100A3000020101617047FEE770B51B4886B081690D
:100A400041F010018161816901F010010491816917
:100A500041F020018161816901F0200104918169E7
:100A600041F0040181618069104E00F004004FF4F0
:100A700000540490002221463046FFF760FC002518
:100A80000220CDE9025000940124694601943046C9
:100A9000FFF76EFB06486946CDE900400295054820
:100AA000FFF766FB06B070BD001002400010014069
:100AB0000000121000080140FEE770470907090E08
:100AC000002806DA00F00F0000F1E02080F8141D85
:100AD000704700F1E02080F800147047074910B516
:100AE00000200860FFF7A0FF02210120FFF7E6FCCD
:100AF00000F012F8BDE81040FFF76ABF00000020C8
:100B000020BF00BF70477047704710B5FFF722FC49
:100B1000BDE81040FFF784BF30B58FB00121080455
:100B2000CDE900100024029402250491CDE907507C
:100B30004FF4E01009906846FFF7C8FD00B1FEE7EA
:100B40000F20CDE90A054FF48060CDE90C40022169
:100B50000AA80E94FFF7D4FC00B1FEE7FFF77AFD78
:100B60004FF47A71B0FBF1F0FFF746FF0420FFF776
:100B700036FF00221146501EFFF76EFC0FB030BD4D
:100B80000D48016841F00101016041680B4A1140C4
:100B9000416001680A4A11400160016821F4802126
:100BA0000160416821F4FE0141604FF41F01816042
:100BB0000449C00308607047001002400000FFF8BD
:100BC000FFFFF6FE08ED00E0FEE702E008C8121F96
:100BD00008C1002AFAD170477047002001E001C126
:100BE000121F002AFBD17047FFF7BCFBFFF794FFF1
:100BF000FFF722FF0F4FDFF84080104C4FF40056F4
:100C0000012531463846FFF796FBC820FFF79EFACC
:100C100001214046FFF78AFB012806D02068012801
:100C2000EFD100BFFFF75AFFEBE73220FFF78EFA54
:100C30002560F7E700100140000801400000002097
:100C4000000000000000000001020304060708097C
:100C5000700C00080000002014000000CA0B0008FF
:100C6000840C00081400002004040000DA0B0008C3
:100C70000000000001000000100000000000000063
:040C800000A24A0480
:04000005080000ED02
:00000001FF
